{
  "contractName": "Power",
  "abi": [
    {
      "constant": true,
      "inputs": [
        {
          "name": "",
          "type": "address"
        },
        {
          "name": "",
          "type": "uint256"
        }
      ],
      "name": "pendings",
      "outputs": [
        {
          "name": "sinceTime",
          "type": "uint64"
        },
        {
          "name": "amount",
          "type": "uint256"
        }
      ],
      "payable": false,
      "stateMutability": "view",
      "type": "function"
    },
    {
      "constant": true,
      "inputs": [],
      "name": "name",
      "outputs": [
        {
          "name": "",
          "type": "string"
        }
      ],
      "payable": false,
      "stateMutability": "view",
      "type": "function"
    },
    {
      "constant": false,
      "inputs": [
        {
          "name": "_spender",
          "type": "address"
        },
        {
          "name": "_value",
          "type": "uint256"
        }
      ],
      "name": "approve",
      "outputs": [
        {
          "name": "",
          "type": "bool"
        }
      ],
      "payable": false,
      "stateMutability": "nonpayable",
      "type": "function"
    },
    {
      "constant": true,
      "inputs": [
        {
          "name": "_address",
          "type": "address"
        }
      ],
      "name": "balanceOfPending",
      "outputs": [
        {
          "name": "amount",
          "type": "uint256"
        }
      ],
      "payable": false,
      "stateMutability": "view",
      "type": "function"
    },
    {
      "constant": true,
      "inputs": [],
      "name": "coin",
      "outputs": [
        {
          "name": "",
          "type": "address"
        }
      ],
      "payable": false,
      "stateMutability": "view",
      "type": "function"
    },
    {
      "constant": true,
      "inputs": [],
      "name": "totalSupply",
      "outputs": [
        {
          "name": "",
          "type": "uint256"
        }
      ],
      "payable": false,
      "stateMutability": "view",
      "type": "function"
    },
    {
      "constant": false,
      "inputs": [
        {
          "name": "_from",
          "type": "address"
        },
        {
          "name": "_to",
          "type": "address"
        },
        {
          "name": "_value",
          "type": "uint256"
        }
      ],
      "name": "transferFrom",
      "outputs": [
        {
          "name": "",
          "type": "bool"
        }
      ],
      "payable": false,
      "stateMutability": "nonpayable",
      "type": "function"
    },
    {
      "constant": true,
      "inputs": [],
      "name": "INITIAL_SUPPLY",
      "outputs": [
        {
          "name": "",
          "type": "uint256"
        }
      ],
      "payable": false,
      "stateMutability": "view",
      "type": "function"
    },
    {
      "constant": true,
      "inputs": [],
      "name": "decimals",
      "outputs": [
        {
          "name": "",
          "type": "uint8"
        }
      ],
      "payable": false,
      "stateMutability": "view",
      "type": "function"
    },
    {
      "constant": false,
      "inputs": [
        {
          "name": "_value",
          "type": "uint256"
        }
      ],
      "name": "powerDown",
      "outputs": [
        {
          "name": "",
          "type": "bool"
        }
      ],
      "payable": false,
      "stateMutability": "nonpayable",
      "type": "function"
    },
    {
      "constant": false,
      "inputs": [
        {
          "name": "_value",
          "type": "uint256"
        }
      ],
      "name": "burn",
      "outputs": [],
      "payable": false,
      "stateMutability": "nonpayable",
      "type": "function"
    },
    {
      "constant": true,
      "inputs": [
        {
          "name": "",
          "type": "address"
        }
      ],
      "name": "power",
      "outputs": [
        {
          "name": "",
          "type": "uint256"
        }
      ],
      "payable": false,
      "stateMutability": "view",
      "type": "function"
    },
    {
      "constant": false,
      "inputs": [
        {
          "name": "_address",
          "type": "address"
        }
      ],
      "name": "powerUp",
      "outputs": [
        {
          "name": "",
          "type": "bool"
        }
      ],
      "payable": false,
      "stateMutability": "nonpayable",
      "type": "function"
    },
    {
      "constant": false,
      "inputs": [
        {
          "name": "_spender",
          "type": "address"
        },
        {
          "name": "_subtractedValue",
          "type": "uint256"
        }
      ],
      "name": "decreaseApproval",
      "outputs": [
        {
          "name": "",
          "type": "bool"
        }
      ],
      "payable": false,
      "stateMutability": "nonpayable",
      "type": "function"
    },
    {
      "constant": true,
      "inputs": [
        {
          "name": "_owner",
          "type": "address"
        }
      ],
      "name": "balanceOf",
      "outputs": [
        {
          "name": "balance",
          "type": "uint256"
        }
      ],
      "payable": false,
      "stateMutability": "view",
      "type": "function"
    },
    {
      "constant": true,
      "inputs": [],
      "name": "owner",
      "outputs": [
        {
          "name": "",
          "type": "address"
        }
      ],
      "payable": false,
      "stateMutability": "view",
      "type": "function"
    },
    {
      "constant": true,
      "inputs": [],
      "name": "symbol",
      "outputs": [
        {
          "name": "",
          "type": "string"
        }
      ],
      "payable": false,
      "stateMutability": "view",
      "type": "function"
    },
    {
      "constant": false,
      "inputs": [
        {
          "name": "_to",
          "type": "address"
        },
        {
          "name": "_value",
          "type": "uint256"
        }
      ],
      "name": "transfer",
      "outputs": [
        {
          "name": "",
          "type": "bool"
        }
      ],
      "payable": false,
      "stateMutability": "nonpayable",
      "type": "function"
    },
    {
      "constant": false,
      "inputs": [
        {
          "name": "_addr",
          "type": "address"
        }
      ],
      "name": "setcoin",
      "outputs": [],
      "payable": false,
      "stateMutability": "nonpayable",
      "type": "function"
    },
    {
      "constant": true,
      "inputs": [
        {
          "name": "_address",
          "type": "address"
        }
      ],
      "name": "balanceOfPower",
      "outputs": [
        {
          "name": "balance",
          "type": "uint256"
        }
      ],
      "payable": false,
      "stateMutability": "view",
      "type": "function"
    },
    {
      "constant": false,
      "inputs": [
        {
          "name": "_sender",
          "type": "address"
        },
        {
          "name": "_value",
          "type": "uint256"
        },
        {
          "name": "_extraData",
          "type": "bytes"
        }
      ],
      "name": "tokenFallback",
      "outputs": [
        {
          "name": "",
          "type": "bool"
        }
      ],
      "payable": false,
      "stateMutability": "nonpayable",
      "type": "function"
    },
    {
      "constant": false,
      "inputs": [
        {
          "name": "_spender",
          "type": "address"
        },
        {
          "name": "_addedValue",
          "type": "uint256"
        }
      ],
      "name": "increaseApproval",
      "outputs": [
        {
          "name": "",
          "type": "bool"
        }
      ],
      "payable": false,
      "stateMutability": "nonpayable",
      "type": "function"
    },
    {
      "constant": true,
      "inputs": [
        {
          "name": "_owner",
          "type": "address"
        },
        {
          "name": "_spender",
          "type": "address"
        }
      ],
      "name": "allowance",
      "outputs": [
        {
          "name": "",
          "type": "uint256"
        }
      ],
      "payable": false,
      "stateMutability": "view",
      "type": "function"
    },
    {
      "constant": false,
      "inputs": [
        {
          "name": "newOwner",
          "type": "address"
        }
      ],
      "name": "transferOwnership",
      "outputs": [],
      "payable": false,
      "stateMutability": "nonpayable",
      "type": "function"
    },
    {
      "constant": true,
      "inputs": [],
      "name": "transfer_enabled",
      "outputs": [
        {
          "name": "",
          "type": "bool"
        }
      ],
      "payable": false,
      "stateMutability": "view",
      "type": "function"
    },
    {
      "inputs": [],
      "payable": false,
      "stateMutability": "nonpayable",
      "type": "constructor"
    },
    {
      "anonymous": false,
      "inputs": [
        {
          "indexed": true,
          "name": "addr",
          "type": "address"
        },
        {
          "indexed": false,
          "name": "value",
          "type": "uint256"
        }
      ],
      "name": "PendingToPowerUp",
      "type": "event"
    },
    {
      "anonymous": false,
      "inputs": [
        {
          "indexed": true,
          "name": "addr",
          "type": "address"
        },
        {
          "indexed": false,
          "name": "value",
          "type": "uint256"
        }
      ],
      "name": "PowerDown",
      "type": "event"
    },
    {
      "anonymous": false,
      "inputs": [
        {
          "indexed": true,
          "name": "previousOwner",
          "type": "address"
        },
        {
          "indexed": true,
          "name": "newOwner",
          "type": "address"
        }
      ],
      "name": "OwnershipTransferred",
      "type": "event"
    },
    {
      "anonymous": false,
      "inputs": [
        {
          "indexed": true,
          "name": "burner",
          "type": "address"
        },
        {
          "indexed": false,
          "name": "value",
          "type": "uint256"
        }
      ],
      "name": "Burn",
      "type": "event"
    },
    {
      "anonymous": false,
      "inputs": [
        {
          "indexed": true,
          "name": "owner",
          "type": "address"
        },
        {
          "indexed": true,
          "name": "spender",
          "type": "address"
        },
        {
          "indexed": false,
          "name": "value",
          "type": "uint256"
        }
      ],
      "name": "Approval",
      "type": "event"
    },
    {
      "anonymous": false,
      "inputs": [
        {
          "indexed": true,
          "name": "from",
          "type": "address"
        },
        {
          "indexed": true,
          "name": "to",
          "type": "address"
        },
        {
          "indexed": false,
          "name": "value",
          "type": "uint256"
        }
      ],
      "name": "Transfer",
      "type": "event"
    }
  ],
  "bytecode": "0x60606040526040805190810160405280600881526020017f456420506f77657200000000000000000000000000000000000000000000000081525060049080519060200190620000519291906200015b565b506040805190810160405280600381526020017f4544500000000000000000000000000000000000000000000000000000000000815250600590805190602001906200009f9291906200015b565b506000600660006101000a81548160ff0219169083151502179055503415620000c757600080fd5b33600360006101000a81548173ffffffffffffffffffffffffffffffffffffffff021916908373ffffffffffffffffffffffffffffffffffffffff16021790555060006001819055506001546000803373ffffffffffffffffffffffffffffffffffffffff1673ffffffffffffffffffffffffffffffffffffffff168152602001908152602001600020819055506200020a565b828054600181600116156101000203166002900490600052602060002090601f016020900481019282601f106200019e57805160ff1916838001178555620001cf565b82800160010185558215620001cf579182015b82811115620001ce578251825591602001919060010190620001b1565b5b509050620001de9190620001e2565b5090565b6200020791905b8082111562000203576000816000905550600101620001e9565b5090565b90565b612266806200021a6000396000f300606060405260043610610148576000357c0100000000000000000000000000000000000000000000000000000000900463ffffffff16806277f3cb1461014d57806306fdde03146101be578063095ea7b31461024c5780630d8ea35d146102a657806311df9995146102f357806318160ddd1461034857806323b872dd146103715780632ff2e9dc146103ea578063313ce5671461041357806340ad44c71461044257806342966c681461047d578063503371a5146104a05780635a7ed869146104ed578063661884631461053e57806370a08231146105985780638da5cb5b146105e557806395d89b411461063a578063a9059cbb146106c8578063af03585814610722578063bb1b42691461075b578063c0ee0b8a146107a8578063d73dd62314610845578063dd62ed3e1461089f578063f2fde38b1461090b578063f4e1358a14610944575b600080fd5b341561015857600080fd5b61018d600480803573ffffffffffffffffffffffffffffffffffffffff16906020019091908035906020019091905050610971565b604051808367ffffffffffffffff1667ffffffffffffffff1681526020018281526020019250505060405180910390f35b34156101c957600080fd5b6101d16109c5565b6040518080602001828103825283818151815260200191508051906020019080838360005b838110156102115780820151818401526020810190506101f6565b50505050905090810190601f16801561023e5780820380516001836020036101000a031916815260200191505b509250505060405180910390f35b341561025757600080fd5b61028c600480803573ffffffffffffffffffffffffffffffffffffffff16906020019091908035906020019091905050610a63565b604051808215151515815260200191505060405180910390f35b34156102b157600080fd5b6102dd600480803573ffffffffffffffffffffffffffffffffffffffff16906020019091905050610b55565b6040518082815260200191505060405180910390f35b34156102fe57600080fd5b610306610c93565b604051808273ffffffffffffffffffffffffffffffffffffffff1673ffffffffffffffffffffffffffffffffffffffff16815260200191505060405180910390f35b341561035357600080fd5b61035b610cb9565b6040518082815260200191505060405180910390f35b341561037c57600080fd5b6103d0600480803573ffffffffffffffffffffffffffffffffffffffff1690602001909190803573ffffffffffffffffffffffffffffffffffffffff16906020019091908035906020019091905050610cc3565b604051808215151515815260200191505060405180910390f35b34156103f557600080fd5b6103fd61107d565b6040518082815260200191505060405180910390f35b341561041e57600080fd5b610426611082565b604051808260ff1660ff16815260200191505060405180910390f35b341561044d57600080fd5b6104636004808035906020019091905050611087565b604051808215151515815260200191505060405180910390f35b341561048857600080fd5b61049e6004808035906020019091905050611364565b005b34156104ab57600080fd5b6104d7600480803573ffffffffffffffffffffffffffffffffffffffff169060200190919050506114b6565b6040518082815260200191505060405180910390f35b34156104f857600080fd5b610524600480803573ffffffffffffffffffffffffffffffffffffffff169060200190919050506114ce565b604051808215151515815260200191505060405180910390f35b341561054957600080fd5b61057e600480803573ffffffffffffffffffffffffffffffffffffffff1690602001909190803590602001909190505061177d565b604051808215151515815260200191505060405180910390f35b34156105a357600080fd5b6105cf600480803573ffffffffffffffffffffffffffffffffffffffff16906020019091905050611a0e565b6040518082815260200191505060405180910390f35b34156105f057600080fd5b6105f8611a56565b604051808273ffffffffffffffffffffffffffffffffffffffff1673ffffffffffffffffffffffffffffffffffffffff16815260200191505060405180910390f35b341561064557600080fd5b61064d611a7c565b6040518080602001828103825283818151815260200191508051906020019080838360005b8381101561068d578082015181840152602081019050610672565b50505050905090810190601f1680156106ba5780820380516001836020036101000a031916815260200191505b509250505060405180910390f35b34156106d357600080fd5b610708600480803573ffffffffffffffffffffffffffffffffffffffff16906020019091908035906020019091905050611b1a565b604051808215151515815260200191505060405180910390f35b341561072d57600080fd5b610759600480803573ffffffffffffffffffffffffffffffffffffffff16906020019091905050611b25565b005b341561076657600080fd5b610792600480803573ffffffffffffffffffffffffffffffffffffffff16906020019091905050611bc5565b6040518082815260200191505060405180910390f35b34156107b357600080fd5b61082b600480803573ffffffffffffffffffffffffffffffffffffffff1690602001909190803590602001909190803590602001908201803590602001908080601f01602080910402602001604051908101604052809392919081815260200183838082843782019150505050505091905050611c0e565b604051808215151515815260200191505060405180910390f35b341561085057600080fd5b610885600480803573ffffffffffffffffffffffffffffffffffffffff16906020019091908035906020019091905050611da1565b604051808215151515815260200191505060405180910390f35b34156108aa57600080fd5b6108f5600480803573ffffffffffffffffffffffffffffffffffffffff1690602001909190803573ffffffffffffffffffffffffffffffffffffffff16906020019091905050611f9d565b6040518082815260200191505060405180910390f35b341561091657600080fd5b610942600480803573ffffffffffffffffffffffffffffffffffffffff16906020019091905050612024565b005b341561094f57600080fd5b61095761217c565b604051808215151515815260200191505060405180910390f35b60076020528160005260406000208181548110151561098c57fe5b9060005260206000209060020201600091509150508060000160009054906101000a900467ffffffffffffffff16908060010154905082565b60048054600181600116156101000203166002900480601f016020809104026020016040519081016040528092919081815260200182805460018160011615610100020316600290048015610a5b5780601f10610a3057610100808354040283529160200191610a5b565b820191906000526020600020905b815481529060010190602001808311610a3e57829003601f168201915b505050505081565b600081600260003373ffffffffffffffffffffffffffffffffffffffff1673ffffffffffffffffffffffffffffffffffffffff16815260200190815260200160002060008573ffffffffffffffffffffffffffffffffffffffff1673ffffffffffffffffffffffffffffffffffffffff168152602001908152602001600020819055508273ffffffffffffffffffffffffffffffffffffffff163373ffffffffffffffffffffffffffffffffffffffff167f8c5be1e5ebec7d5bd14f71427d1e84f3dd0314c0f7b2291e5b200ac8c7c3b925846040518082815260200191505060405180910390a36001905092915050565b600080600090505b600760008473ffffffffffffffffffffffffffffffffffffffff1673ffffffffffffffffffffffffffffffffffffffff16815260200190815260200160002080549050811015610c8d576000600760008573ffffffffffffffffffffffffffffffffffffffff1673ffffffffffffffffffffffffffffffffffffffff16815260200190815260200160002082815481101515610bf557fe5b9060005260206000209060020201600101541115610c8057610c7d600760008573ffffffffffffffffffffffffffffffffffffffff1673ffffffffffffffffffffffffffffffffffffffff16815260200190815260200160002082815481101515610c5c57fe5b9060005260206000209060020201600101548361218f90919063ffffffff16565b91505b8080600101915050610b5d565b50919050565b600660019054906101000a900473ffffffffffffffffffffffffffffffffffffffff1681565b6000600154905090565b60008073ffffffffffffffffffffffffffffffffffffffff168373ffffffffffffffffffffffffffffffffffffffff1614151515610d0057600080fd5b6000808573ffffffffffffffffffffffffffffffffffffffff1673ffffffffffffffffffffffffffffffffffffffff168152602001908152602001600020548211151515610d4d57600080fd5b600260008573ffffffffffffffffffffffffffffffffffffffff1673ffffffffffffffffffffffffffffffffffffffff16815260200190815260200160002060003373ffffffffffffffffffffffffffffffffffffffff1673ffffffffffffffffffffffffffffffffffffffff168152602001908152602001600020548211151515610dd857600080fd5b610e29826000808773ffffffffffffffffffffffffffffffffffffffff1673ffffffffffffffffffffffffffffffffffffffff168152602001908152602001600020546121ad90919063ffffffff16565b6000808673ffffffffffffffffffffffffffffffffffffffff1673ffffffffffffffffffffffffffffffffffffffff16815260200190815260200160002081905550610ebc826000808673ffffffffffffffffffffffffffffffffffffffff1673ffffffffffffffffffffffffffffffffffffffff1681526020019081526020016000205461218f90919063ffffffff16565b6000808573ffffffffffffffffffffffffffffffffffffffff1673ffffffffffffffffffffffffffffffffffffffff16815260200190815260200160002081905550610f8d82600260008773ffffffffffffffffffffffffffffffffffffffff1673ffffffffffffffffffffffffffffffffffffffff16815260200190815260200160002060003373ffffffffffffffffffffffffffffffffffffffff1673ffffffffffffffffffffffffffffffffffffffff168152602001908152602001600020546121ad90919063ffffffff16565b600260008673ffffffffffffffffffffffffffffffffffffffff1673ffffffffffffffffffffffffffffffffffffffff16815260200190815260200160002060003373ffffffffffffffffffffffffffffffffffffffff1673ffffffffffffffffffffffffffffffffffffffff168152602001908152602001600020819055508273ffffffffffffffffffffffffffffffffffffffff168473ffffffffffffffffffffffffffffffffffffffff167fddf252ad1be2c89b69c2b068fc378daa952ba7f163c4a11628f55a4df523b3ef846040518082815260200191505060405180910390a3600190509392505050565b600081565b601281565b60008061109333611bc5565b90506000811115156110a457600080fd5b8281101515156110b357600080fd5b82600154101515156110c457600080fd5b82600660019054906101000a900473ffffffffffffffffffffffffffffffffffffffff1673ffffffffffffffffffffffffffffffffffffffff166370a08231306000604051602001526040518263ffffffff167c0100000000000000000000000000000000000000000000000000000000028152600401808273ffffffffffffffffffffffffffffffffffffffff1673ffffffffffffffffffffffffffffffffffffffff168152602001915050602060405180830381600087803b151561118a57600080fd5b6102c65a03f1151561119b57600080fd5b50505060405180519050101515156111b257600080fd5b6111c583826121ad90919063ffffffff16565b600860003373ffffffffffffffffffffffffffffffffffffffff1673ffffffffffffffffffffffffffffffffffffffff1681526020019081526020016000208190555061121d836001546121ad90919063ffffffff16565b600181905550600660019054906101000a900473ffffffffffffffffffffffffffffffffffffffff1673ffffffffffffffffffffffffffffffffffffffff1663a9059cbb33856000604051602001526040518363ffffffff167c0100000000000000000000000000000000000000000000000000000000028152600401808373ffffffffffffffffffffffffffffffffffffffff1673ffffffffffffffffffffffffffffffffffffffff16815260200182815260200192505050602060405180830381600087803b15156112f057600080fd5b6102c65a03f1151561130157600080fd5b50505060405180519050503373ffffffffffffffffffffffffffffffffffffffff167fd5077bc226c0b6a32332264da6dca46475e07dbfaeca394c49bb01bbbdacb518846040518082815260200191505060405180910390a26001915050919050565b60008060003373ffffffffffffffffffffffffffffffffffffffff1673ffffffffffffffffffffffffffffffffffffffff1681526020019081526020016000205482111515156113b357600080fd5b339050611407826000808473ffffffffffffffffffffffffffffffffffffffff1673ffffffffffffffffffffffffffffffffffffffff168152602001908152602001600020546121ad90919063ffffffff16565b6000808373ffffffffffffffffffffffffffffffffffffffff1673ffffffffffffffffffffffffffffffffffffffff1681526020019081526020016000208190555061145e826001546121ad90919063ffffffff16565b6001819055508073ffffffffffffffffffffffffffffffffffffffff167fcc16f5dbb4873280815c1ee09dbd06736cffcc184412cf7a71a0fdb75d397ca5836040518082815260200191505060405180910390a25050565b60086020528060005260406000206000915090505481565b6000806000600760008573ffffffffffffffffffffffffffffffffffffffff1673ffffffffffffffffffffffffffffffffffffffff16815260200190815260200160002080549050111561177357600090505b600760008473ffffffffffffffffffffffffffffffffffffffff1673ffffffffffffffffffffffffffffffffffffffff168152602001908152602001600020805490508110156117725742603c600760008673ffffffffffffffffffffffffffffffffffffffff1673ffffffffffffffffffffffffffffffffffffffff168152602001908152602001600020838154811015156115ba57fe5b906000526020600020906002020160000160009054906101000a900467ffffffffffffffff160167ffffffffffffffff16111515611765576116a1600760008573ffffffffffffffffffffffffffffffffffffffff1673ffffffffffffffffffffffffffffffffffffffff1681526020019081526020016000208281548110151561164157fe5b906000526020600020906002020160010154600860008673ffffffffffffffffffffffffffffffffffffffff1673ffffffffffffffffffffffffffffffffffffffff1681526020019081526020016000205461218f90919063ffffffff16565b600860008573ffffffffffffffffffffffffffffffffffffffff1673ffffffffffffffffffffffffffffffffffffffff16815260200190815260200160002081905550600760008473ffffffffffffffffffffffffffffffffffffffff1673ffffffffffffffffffffffffffffffffffffffff1681526020019081526020016000208181548110151561173057fe5b9060005260206000209060020201600080820160006101000a81549067ffffffffffffffff0219169055600182016000905550505b8080600101915050611521565b5b6001915050919050565b600080600260003373ffffffffffffffffffffffffffffffffffffffff1673ffffffffffffffffffffffffffffffffffffffff16815260200190815260200160002060008573ffffffffffffffffffffffffffffffffffffffff1673ffffffffffffffffffffffffffffffffffffffff1681526020019081526020016000205490508083111561188e576000600260003373ffffffffffffffffffffffffffffffffffffffff1673ffffffffffffffffffffffffffffffffffffffff16815260200190815260200160002060008673ffffffffffffffffffffffffffffffffffffffff1673ffffffffffffffffffffffffffffffffffffffff16815260200190815260200160002081905550611922565b6118a183826121ad90919063ffffffff16565b600260003373ffffffffffffffffffffffffffffffffffffffff1673ffffffffffffffffffffffffffffffffffffffff16815260200190815260200160002060008673ffffffffffffffffffffffffffffffffffffffff1673ffffffffffffffffffffffffffffffffffffffff168152602001908152602001600020819055505b8373ffffffffffffffffffffffffffffffffffffffff163373ffffffffffffffffffffffffffffffffffffffff167f8c5be1e5ebec7d5bd14f71427d1e84f3dd0314c0f7b2291e5b200ac8c7c3b925600260003373ffffffffffffffffffffffffffffffffffffffff1673ffffffffffffffffffffffffffffffffffffffff16815260200190815260200160002060008873ffffffffffffffffffffffffffffffffffffffff1673ffffffffffffffffffffffffffffffffffffffff168152602001908152602001600020546040518082815260200191505060405180910390a3600191505092915050565b60008060008373ffffffffffffffffffffffffffffffffffffffff1673ffffffffffffffffffffffffffffffffffffffff168152602001908152602001600020549050919050565b600360009054906101000a900473ffffffffffffffffffffffffffffffffffffffff1681565b60058054600181600116156101000203166002900480601f016020809104026020016040519081016040528092919081815260200182805460018160011615610100020316600290048015611b125780601f10611ae757610100808354040283529160200191611b12565b820191906000526020600020905b815481529060010190602001808311611af557829003601f168201915b505050505081565b600080905092915050565b600360009054906101000a900473ffffffffffffffffffffffffffffffffffffffff1673ffffffffffffffffffffffffffffffffffffffff163373ffffffffffffffffffffffffffffffffffffffff16141515611b8157600080fd5b80600660016101000a81548173ffffffffffffffffffffffffffffffffffffffff021916908373ffffffffffffffffffffffffffffffffffffffff16021790555050565b6000600860008373ffffffffffffffffffffffffffffffffffffffff1673ffffffffffffffffffffffffffffffffffffffff168152602001908152602001600020549050919050565b6000600660019054906101000a900473ffffffffffffffffffffffffffffffffffffffff1673ffffffffffffffffffffffffffffffffffffffff163373ffffffffffffffffffffffffffffffffffffffff16141515611c6c57600080fd5b600760008573ffffffffffffffffffffffffffffffffffffffff1673ffffffffffffffffffffffffffffffffffffffff1681526020019081526020016000208054806001018281611cbd91906121c6565b9160005260206000209060020201600060408051908101604052804267ffffffffffffffff16815260200187815250909190915060008201518160000160006101000a81548167ffffffffffffffff021916908367ffffffffffffffff16021790555060208201518160010155505050611d428360015461218f90919063ffffffff16565b6001819055503373ffffffffffffffffffffffffffffffffffffffff167fbcbfa4e2ceff11026f51cc430fb70669f184bd771ace35a50a6e6015c91dc205846040518082815260200191505060405180910390a2600190509392505050565b6000611e3282600260003373ffffffffffffffffffffffffffffffffffffffff1673ffffffffffffffffffffffffffffffffffffffff16815260200190815260200160002060008673ffffffffffffffffffffffffffffffffffffffff1673ffffffffffffffffffffffffffffffffffffffff1681526020019081526020016000205461218f90919063ffffffff16565b600260003373ffffffffffffffffffffffffffffffffffffffff1673ffffffffffffffffffffffffffffffffffffffff16815260200190815260200160002060008573ffffffffffffffffffffffffffffffffffffffff1673ffffffffffffffffffffffffffffffffffffffff168152602001908152602001600020819055508273ffffffffffffffffffffffffffffffffffffffff163373ffffffffffffffffffffffffffffffffffffffff167f8c5be1e5ebec7d5bd14f71427d1e84f3dd0314c0f7b2291e5b200ac8c7c3b925600260003373ffffffffffffffffffffffffffffffffffffffff1673ffffffffffffffffffffffffffffffffffffffff16815260200190815260200160002060008773ffffffffffffffffffffffffffffffffffffffff1673ffffffffffffffffffffffffffffffffffffffff168152602001908152602001600020546040518082815260200191505060405180910390a36001905092915050565b6000600260008473ffffffffffffffffffffffffffffffffffffffff1673ffffffffffffffffffffffffffffffffffffffff16815260200190815260200160002060008373ffffffffffffffffffffffffffffffffffffffff1673ffffffffffffffffffffffffffffffffffffffff16815260200190815260200160002054905092915050565b600360009054906101000a900473ffffffffffffffffffffffffffffffffffffffff1673ffffffffffffffffffffffffffffffffffffffff163373ffffffffffffffffffffffffffffffffffffffff1614151561208057600080fd5b600073ffffffffffffffffffffffffffffffffffffffff168173ffffffffffffffffffffffffffffffffffffffff16141515156120bc57600080fd5b8073ffffffffffffffffffffffffffffffffffffffff16600360009054906101000a900473ffffffffffffffffffffffffffffffffffffffff1673ffffffffffffffffffffffffffffffffffffffff167f8be0079c531659141344cd1fd0a4f28419497f9722a3daafe3b4186f6b6457e060405160405180910390a380600360006101000a81548173ffffffffffffffffffffffffffffffffffffffff021916908373ffffffffffffffffffffffffffffffffffffffff16021790555050565b600660009054906101000a900460ff1681565b60008082840190508381101515156121a357fe5b8091505092915050565b60008282111515156121bb57fe5b818303905092915050565b8154818355818115116121f3576002028160020283600052602060002091820191016121f291906121f8565b5b505050565b61223791905b8082111561223357600080820160006101000a81549067ffffffffffffffff02191690556001820160009055506002016121fe565b5090565b905600a165627a7a723058203c7c9bbc873454a69c0f2de1105465907bc6ceb3c5a6cb2388f13ffa0148d2270029",
  "source": "pragma solidity ^0.4.18;\r\n\r\nimport 'zeppelin-solidity/contracts/token/ERC20/StandardToken.sol';\r\nimport 'zeppelin-solidity/contracts/token/ERC20/BurnableToken.sol';\r\nimport 'zeppelin-solidity/contracts/ownership/Ownable.sol';\r\nimport 'zeppelin-solidity/contracts/math/SafeMath.sol';\r\n\r\n\r\ncontract Power is StandardToken, BurnableToken, Ownable{\r\n\t\r\n\tstring public name = \"Ed Power\";\r\n\tstring public symbol = \"EDP\";\r\n\tuint8 public constant decimals = 18;\r\n\tbool public transfer_enabled = false;\r\n\tuint256 public constant INITIAL_SUPPLY = 0;\r\n\tStandardToken public coin;\r\n\r\n\t\r\n\tevent PendingToPowerUp(address indexed addr, uint256 value);\r\n\tevent PowerDown(address indexed addr, uint256 value);\r\n\t\r\n\tmapping (address => pending[]) public pendings;\r\n\tmapping (address => uint256) public power;\r\n    struct pending {\r\n\t\tuint64 sinceTime;\r\n\t\tuint256 amount;\r\n    }\r\n\t\r\n\tfunction Power() public{\r\n\t\ttotalSupply_  = INITIAL_SUPPLY;\r\n\t\tbalances[msg.sender] = totalSupply_ ;\r\n\t}\r\n\t\r\n\t\r\n\t\r\n\tfunction setcoin(address _addr) external onlyOwner{\r\n\r\n\t\tcoin = StandardToken(_addr);\r\n\t}\r\n\t\r\n\tfunction transfer(address _to, uint256 _value) public returns (bool) {\r\n        return false;\r\n    }\r\n\t\r\n\tfunction powerDown(uint256 _value) public returns (bool) {\r\n\t\tuint256 amount = balanceOfPower(msg.sender);\r\n\t\trequire(amount > 0);   \t\t\t\t\t\t\t//user has power\r\n\t\trequire(amount >= _value);  \t\t\t\t\t//don't let it underflow\r\n\t\trequire(totalSupply_ >= _value);\t\t\t\t//don't let it underflow\r\n\t\trequire(coin.balanceOf(address(this)) >= _value);  \t\t//contract need to have enough coin to power down\r\n\t\t\r\n\t\tpower[msg.sender] = amount.sub(_value);\r\n\t\ttotalSupply_ = totalSupply_.sub(_value);\r\n\t\tcoin.transfer(msg.sender,_value);\r\n\t\tPowerDown(msg.sender,_value);\r\n\t\treturn true;\r\n\t\t\r\n\t}\r\n\t\r\n\t\r\n\tfunction tokenFallback(address _sender,\r\n                       uint256 _value,\r\n                       bytes _extraData) public returns (bool) {\r\n\t\trequire(msg.sender == address(coin));\r\n\t\tpendings[_sender].push(pending(uint64(now),_value));\r\n\t\t//balances[_sender] = balances[_sender].add(_value);\r\n\t\ttotalSupply_ = totalSupply_.add(_value);\r\n\t\t\r\n\t\tPendingToPowerUp(msg.sender,_value);\r\n\t\treturn true;\r\n\t\t\r\n\t}\r\n\t\r\n\tfunction powerUp(address _address) external returns(bool){\r\n\t\tif(pendings[_address].length > 0){\r\n\t\t\tfor(uint i = 0; i < pendings[_address].length;i++){\r\n\t\t\t\tif(pendings[_address][i].sinceTime + 1 minutes <= now){\r\n\t\t\t\t\tpower[_address] = power[_address].add(pendings[_address][i].amount);\r\n\t\t\t\t\tdelete pendings[_address][i];\r\n\t\t\t\t}\r\n\t\t\t}\r\n\t\t\t\r\n\t\t}\r\n\t\treturn true;\r\n\t}\r\n\t\r\n\tfunction balanceOfPending(address _address) public view returns(uint amount) {\r\n\t\t//amounts = new uint[](pendings[_address].length);\r\n\t\t//deltas =  new uint[](pendings[_address].length);\r\n\t\tfor(uint i = 0; i < pendings[_address].length;i++){\r\n\t\t\tif(pendings[_address][i].amount > 0){\r\n\t\t\t\tamount = amount.add(pendings[_address][i].amount);\r\n\t\t\t}\r\n\t\t}\r\n\t}\r\n\t\r\n\tfunction balanceOfPower(address _address) public view returns(uint256 balance) {\r\n\t\treturn power[_address];\r\n\t}\r\n}",
  "sourcePath": "C:\\Users\\Edward\\Documents\\GitHub\\edcoin\\contracts\\power.sol",
  "compiler": {
    "name": "solc",
    "version": "0.4.18+commit.9cf6e910.Emscripten.clang"
  },
  "schemaVersion": "1.0.1",
  "updatedAt": "2018-02-05T16:41:17.093Z"
}